:100000000C942A000C9442000C9442000C94420080
:100010000C9442000C9442000C9442000C94420058
:100020000C9442000C9442000C9442000C94420048
:100030000C9442000C9442000C9442000C94420038
:100040000C9442000C9442000C9442000C94420028
:100050000C94420011241FBECFE5D4E0DEBFCDBF1B
:0C0060000E9436000C943400F894FFCF8E
:10006C008FEF87BB80E088BBE7EAF1E63197F1F7C9
:08007C0000C000008F5FF7CF08
:040084000C940000D8
:00000001FF
